{
  "_format": "hh-sol-artifact-1",
  "contractName": "Token",
  "sourceName": "contracts/Token.sol",
  "abi": [
    {
      "inputs": [
        {
          "internalType": "string",
          "name": "_name",
          "type": "string"
        }
      ],
      "stateMutability": "nonpayable",
      "type": "constructor"
    },
    {
      "anonymous": false,
      "inputs": [
        {
          "indexed": true,
          "internalType": "address",
          "name": "_from",
          "type": "address"
        },
        {
          "indexed": true,
          "internalType": "address",
          "name": "_to",
          "type": "address"
        },
        {
          "indexed": false,
          "internalType": "uint256",
          "name": "_value",
          "type": "uint256"
        }
      ],
      "name": "Transfer",
      "type": "event"
    },
    {
      "inputs": [
        {
          "internalType": "address",
          "name": "account",
          "type": "address"
        }
      ],
      "name": "balanceOf",
      "outputs": [
        {
          "internalType": "uint256",
          "name": "",
          "type": "uint256"
        }
      ],
      "stateMutability": "view",
      "type": "function"
    },
    {
      "inputs": [],
      "name": "name",
      "outputs": [
        {
          "internalType": "string",
          "name": "",
          "type": "string"
        }
      ],
      "stateMutability": "view",
      "type": "function"
    },
    {
      "inputs": [],
      "name": "owner",
      "outputs": [
        {
          "internalType": "address",
          "name": "",
          "type": "address"
        }
      ],
      "stateMutability": "view",
      "type": "function"
    },
    {
      "inputs": [],
      "name": "symbol",
      "outputs": [
        {
          "internalType": "string",
          "name": "",
          "type": "string"
        }
      ],
      "stateMutability": "view",
      "type": "function"
    },
    {
      "inputs": [],
      "name": "totalSupply",
      "outputs": [
        {
          "internalType": "uint256",
          "name": "",
          "type": "uint256"
        }
      ],
      "stateMutability": "view",
      "type": "function"
    },
    {
      "inputs": [
        {
          "internalType": "address",
          "name": "to",
          "type": "address"
        },
        {
          "internalType": "uint256",
          "name": "amount",
          "type": "uint256"
        }
      ],
      "name": "transfer",
      "outputs": [],
      "stateMutability": "nonpayable",
      "type": "function"
    }
  ],
  "bytecode": "0x60806040526040518060400160405280601081526020017f4d79204861726468617420546f6b656e00000000000000000000000000000000815250600090816200004a9190620003e6565b506040518060400160405280600381526020017f4d4854000000000000000000000000000000000000000000000000000000000081525060019081620000919190620003e6565b50620f4240600255348015620000a657600080fd5b5060405162000e8a38038062000e8a8339818101604052810190620000cc919062000631565b8060009081620000dd9190620003e6565b50600254600460003373ffffffffffffffffffffffffffffffffffffffff1673ffffffffffffffffffffffffffffffffffffffff1681526020019081526020016000208190555033600360006101000a81548173ffffffffffffffffffffffffffffffffffffffff021916908373ffffffffffffffffffffffffffffffffffffffff1602179055505062000682565b600081519050919050565b7f4e487b7100000000000000000000000000000000000000000000000000000000600052604160045260246000fd5b7f4e487b7100000000000000000000000000000000000000000000000000000000600052602260045260246000fd5b60006002820490506001821680620001ee57607f821691505b602082108103620002045762000203620001a6565b5b50919050565b60008190508160005260206000209050919050565b60006020601f8301049050919050565b600082821b905092915050565b6000600883026200026e7fffffffffffffffffffffffffffffffffffffffffffffffffffffffffffffffff826200022f565b6200027a86836200022f565b95508019841693508086168417925050509392505050565b6000819050919050565b6000819050919050565b6000620002c7620002c1620002bb8462000292565b6200029c565b62000292565b9050919050565b6000819050919050565b620002e383620002a6565b620002fb620002f282620002ce565b8484546200023c565b825550505050565b600090565b6200031262000303565b6200031f818484620002d8565b505050565b5b8181101562000347576200033b60008262000308565b60018101905062000325565b5050565b601f821115620003965762000360816200020a565b6200036b846200021f565b810160208510156200037b578190505b620003936200038a856200021f565b83018262000324565b50505b505050565b600082821c905092915050565b6000620003bb600019846008026200039b565b1980831691505092915050565b6000620003d68383620003a8565b9150826002028217905092915050565b620003f1826200016c565b67ffffffffffffffff8111156200040d576200040c62000177565b5b620004198254620001d5565b620004268282856200034b565b600060209050601f8311600181146200045e576000841562000449578287015190505b620004558582620003c8565b865550620004c5565b601f1984166200046e866200020a565b60005b82811015620004985784890151825560018201915060208501945060208101905062000471565b86831015620004b85784890151620004b4601f891682620003a8565b8355505b6001600288020188555050505b505050505050565b6000604051905090565b600080fd5b600080fd5b600080fd5b600080fd5b6000601f19601f8301169050919050565b6200050782620004eb565b810181811067ffffffffffffffff8211171562000529576200052862000177565b5b80604052505050565b60006200053e620004cd565b90506200054c8282620004fc565b919050565b600067ffffffffffffffff8211156200056f576200056e62000177565b5b6200057a82620004eb565b9050602081019050919050565b60005b83811015620005a75780820151818401526020810190506200058a565b60008484015250505050565b6000620005ca620005c48462000551565b62000532565b905082815260208101848484011115620005e957620005e8620004e6565b5b620005f684828562000587565b509392505050565b600082601f830112620006165762000615620004e1565b5b815162000628848260208601620005b3565b91505092915050565b6000602082840312156200064a5762000649620004d7565b5b600082015167ffffffffffffffff8111156200066b576200066a620004dc565b5b6200067984828501620005fe565b91505092915050565b6107f880620006926000396000f3fe608060405234801561001057600080fd5b50600436106100625760003560e01c806306fdde031461006757806318160ddd1461008557806370a08231146100a35780638da5cb5b146100d357806395d89b41146100f1578063a9059cbb1461010f575b600080fd5b61006f61012b565b60405161007c91906104e3565b60405180910390f35b61008d6101b9565b60405161009a919061051e565b60405180910390f35b6100bd60048036038101906100b8919061059c565b6101bf565b6040516100ca919061051e565b60405180910390f35b6100db610208565b6040516100e891906105d8565b60405180910390f35b6100f961022e565b60405161010691906104e3565b60405180910390f35b6101296004803603810190610124919061061f565b6102bc565b005b600080546101389061068e565b80601f01602080910402602001604051908101604052809291908181526020018280546101649061068e565b80156101b15780601f10610186576101008083540402835291602001916101b1565b820191906000526020600020905b81548152906001019060200180831161019457829003601f168201915b505050505081565b60025481565b6000600460008373ffffffffffffffffffffffffffffffffffffffff1673ffffffffffffffffffffffffffffffffffffffff168152602001908152602001600020549050919050565b600360009054906101000a900473ffffffffffffffffffffffffffffffffffffffff1681565b6001805461023b9061068e565b80601f01602080910402602001604051908101604052809291908181526020018280546102679061068e565b80156102b45780601f10610289576101008083540402835291602001916102b4565b820191906000526020600020905b81548152906001019060200180831161029757829003601f168201915b505050505081565b80600460003373ffffffffffffffffffffffffffffffffffffffff1673ffffffffffffffffffffffffffffffffffffffff16815260200190815260200160002054101561033e576040517f08c379a00000000000000000000000000000000000000000000000000000000081526004016103359061070b565b60405180910390fd5b80600460003373ffffffffffffffffffffffffffffffffffffffff1673ffffffffffffffffffffffffffffffffffffffff168152602001908152602001600020600082825461038d919061075a565b9250508190555080600460008473ffffffffffffffffffffffffffffffffffffffff1673ffffffffffffffffffffffffffffffffffffffff16815260200190815260200160002060008282546103e3919061078e565b925050819055508173ffffffffffffffffffffffffffffffffffffffff163373ffffffffffffffffffffffffffffffffffffffff167fddf252ad1be2c89b69c2b068fc378daa952ba7f163c4a11628f55a4df523b3ef83604051610447919061051e565b60405180910390a35050565b600081519050919050565b600082825260208201905092915050565b60005b8381101561048d578082015181840152602081019050610472565b60008484015250505050565b6000601f19601f8301169050919050565b60006104b582610453565b6104bf818561045e565b93506104cf81856020860161046f565b6104d881610499565b840191505092915050565b600060208201905081810360008301526104fd81846104aa565b905092915050565b6000819050919050565b61051881610505565b82525050565b6000602082019050610533600083018461050f565b92915050565b600080fd5b600073ffffffffffffffffffffffffffffffffffffffff82169050919050565b60006105698261053e565b9050919050565b6105798161055e565b811461058457600080fd5b50565b60008135905061059681610570565b92915050565b6000602082840312156105b2576105b1610539565b5b60006105c084828501610587565b91505092915050565b6105d28161055e565b82525050565b60006020820190506105ed60008301846105c9565b92915050565b6105fc81610505565b811461060757600080fd5b50565b600081359050610619816105f3565b92915050565b6000806040838503121561063657610635610539565b5b600061064485828601610587565b92505060206106558582860161060a565b9150509250929050565b7f4e487b7100000000000000000000000000000000000000000000000000000000600052602260045260246000fd5b600060028204905060018216806106a657607f821691505b6020821081036106b9576106b861065f565b5b50919050565b7f4e6f7420656e6f75676820746f6b656e73000000000000000000000000000000600082015250565b60006106f560118361045e565b9150610700826106bf565b602082019050919050565b60006020820190508181036000830152610724816106e8565b9050919050565b7f4e487b7100000000000000000000000000000000000000000000000000000000600052601160045260246000fd5b600061076582610505565b915061077083610505565b92508282039050818111156107885761078761072b565b5b92915050565b600061079982610505565b91506107a483610505565b92508282019050808211156107bc576107bb61072b565b5b9291505056fea2646970667358221220675dd9b7e91c00a36185a865e55348c4157847d542f64d97987dd358d83136c564736f6c63430008110033",
  "linkReferences": {},
  "deployedLinkReferences": {}
}